:100000000C945E000C9486000C9486000C94860080
:100010000C9486000C9486000C9486000C94860048
:100020000C9486000C9486000C9486000C94860038
:100030000C9486000C9486000C9486000C94860028
:100040000C94AE090C9486000C947C090C9456090F
:100050000C9486000C9486000C9486000C94860008
:100060000C9486000C9486000000000024002700F9
:100070002A0000000000250028002B0004040404CE
:100080000404040402020202020203030303030342
:10009000010204081020408001020408102001021F
:1000A00004081020000000080002010000030407FB
:1000B0000000000000000000F809440F11241FBEDA
:1000C000CFEFD8E0DEBFCDBF25E0ACE4B1E001C0AA
:1000D0001D92A631B207E1F711E0A0E0B1E0EEEC2D
:1000E000FBE202C005900D92AC34B107D9F710E0E5
:1000F000CDE5D0E004C02197FE010E94E213CC358B
:10010000D107C9F70E94AD0B0C94DA150C940000CE
:10011000AF92BF92CF92DF92EF92FF920F931F9315
:10012000CF93DF936C017B018B01040F151FEB0153
:100130005E01AE18BF08C017D10759F06991D6010A
:10014000ED91FC910190F081E02DC6010995892B7C
:1001500079F7C501DF91CF911F910F91FF90EF903B
:10016000DF90CF90BF90AF900895FC01538D448DE8
:10017000252F30E0842F90E0821B930B541710F052
:10018000CF96089501970895FC01918D828D98175F
:1001900061F0A28DAE0FBF2FB11D5D968C91928D37
:1001A0009F5F9F73928F90E008958FEF9FEF089568
:1001B000FC01918D828D981731F0828DE80FF11D31
:1001C000858D90E008958FEF9FEF0895FC01918D4C
:1001D000228D892F90E0805C9F4F821B91098F7345
:1001E0009927089581E693E00E94E60021E0892B9B
:1001F00009F420E0822F089580E090E0892B29F017
:100200000E94F20081110C9400000895FC01A48D5D
:10021000A80FB92FB11DA35ABF4F2C91848D90E028
:1002200001968F739927848FA689B7892C93A0890B
:10023000B1898C91837080648C93938D848D981395
:1002400006C00288F389E02D80818F7D8083089528
:10025000EF92FF920F931F93CF93DF93EC0181E016
:10026000888F9B8D8C8D98131AC0E889F9898081BD
:1002700085FF15C09FB7F894EE89FF896083E889F0
:10028000F98980818370806480839FBF81E090E0E2
:10029000DF91CF911F910F91FF90EF900895F62E6F
:1002A0000B8D10E00F5F1F4F0F731127E02E8C8D09
:1002B0008E110CC00FB607FCFACFE889F98980814E
:1002C00085FFF5CFCE010E940601F1CFEB8DEC0F3B
:1002D000FD2FF11DE35AFF4FF0829FB7F8940B8F6B
:1002E000EA89FB8980818062CFCFCF93DF93EC01D5
:1002F000888D8823B9F0AA89BB89E889F9898C910E
:1003000085FD03C0808186FD0DC00FB607FCF7CFC9
:100310008C9185FFF2CF808185FFEDCFCE010E94C9
:100320000601E9CFDF91CF91089590E0FC01EC55F3
:10033000FF4F2491FC01E057FF4F3491FC01E4583A
:10034000FF4FE491EE23C9F0222339F0233001F16D
:10035000A8F4213019F1223029F1F0E0EE0FFF1F4F
:10036000EE58FF4FA591B4918FB7F894EC916111BD
:1003700026C030953E233C938FBF08952730A9F0C7
:100380002830C9F0243049F7809180008F7D03C068
:10039000809180008F7780938000DFCF84B58F7746
:1003A00084BDDBCF84B58F7DFBCF8091B0008F778C
:1003B0008093B000D2CF8091B0008F7DF9CF3E2BDB
:1003C000DACFCF93DF9390E0FC01E057FF4F249109
:1003D00084589F4FFC0184918823D1F090E0880FCE
:1003E000991FFC01E859FF4FA591B491FC01EE580B
:1003F000FF4FC591D49161110EC09FB7F8948C91B5
:10040000E22FE0958E238C932881E223E8839FBF1F
:10041000DF91CF9108958FB7F894EC91E22BEC9394
:100420008FBFF6CF3FB7F894809151019091520160
:10043000A0915301B091540126B5A89B05C02F3F50
:1004400019F00196A11DB11D3FBFBA2FA92F982FFA
:100450008827BC01CD01620F711D811D911D42E0F5
:10046000660F771F881F991F4A95D1F708952FB7F8
:10047000F89460914D0170914E0180914F019091DF
:1004800050012FBF08950F931F930E94370260936E
:10049000690370936A0380936B0390936C0381E606
:1004A00093E00E94C40097FF1DC00E943702009194
:1004B000690310916A0320916B0330916C03601BF8
:1004C000710B820B930B00916503109166032091D1
:1004D0006703309168036017710782079307F8F28A
:1004E0008FEF9FEF1F910F91089580E290E00895A4
:1004F00080E890E00895FC01248935892F3F320778
:1005000051F061E0FC0186899789019709F460E068
:10051000822F0C9495010895EF92FF920F931F93F1
:10052000CF93DF938C017B01C1E0D0E0D801ED9146
:10053000FC910190F081E02DC80109958C179D0771
:1005400034F0CE15DF0571F4F801D18FC08FD801DA
:1005500058968D919C91DF91CF911F910F91FF90B3
:10056000EF900895CC0FDD1FE1CF0F931F93CF9332
:10057000DF93EC010E948C028EAD9FAD019649F095
:100580008E01005C1F4FF801808191818F3F980799
:1005900039F4888D998DDF91CF911F910F91089536
:1005A00061E00E94E10161E0888D998D08970CF46B
:1005B00060E0F80180810E949501888D998D8430DA
:1005C0009105E9F05CF48130910581F0029709F71B
:1005D00061E08EAD0E94E10161E00DC080319105C6
:1005E000B9F38032910559F0089799F661E08EAD24
:1005F0000E94E10160E08EAD0E949501CACF60E0EB
:100600008EAD0E94E101C5CFCF93DF93FC0127811E
:10061000222359F1EC0161E080850E94E10161E053
:1006200089850E94E1018F81843011F08830B1F416
:1006300061E08A850E94E10161E08B850E94E10111
:100640008FA58F3F91F061E00E94E1016EA581E0EE
:1006500068278FA5DF91CF910C949501833011F01D
:10066000863071F761E08A85E9CFDF91CF910895F7
:10067000CF93DF93FC0127812223A9F0EC010190A5
:10068000F081E02D0284F385E02D60E009958FA5CF
:100690008F3F49F061E00E94E1016EA58FA5DF91D7
:1006A000CF910C949501DF91CF910895DC01ED91EC
:1006B000FC9122853385477055276627772741505F
:1006C000510961097109473051056105710560F4EF
:1006D000FA01E359FC4F0C94E213770379037B038F
:1006E0007D037F038103830361E0F901099465E0E1
:1006F000FCCF64E0FACF66E0F8CF62E0F6CF6AE0C4
:10070000F4CF68E0F2CF69E0F0CFCF93DF93EC0154
:10071000CB01BA0126E030E040E050E00E94C31374
:10072000623071058105910589F16CF461157105DF
:1007300081059105D1F06130710581059105F9F0D0
:10074000DF91CF910895643071058105910561F1C4
:1007500024F1653071058105910591F7E881F981F2
:100760000284F385E02D66E006C0E881F981028409
:10077000F385E02D64E0CE01DF91CF910994E8810B
:10078000F9810284F385E02D65E0F5CFE881F981F8
:100790000284F385E02D61E0EECFE881F9810284E7
:1007A000F385E02D63E0E7CFE881F9810284F385EA
:1007B000E02D62E0E0CFDC01ED91FC910284F38555
:1007C000E02D437055276627772742305105610594
:1007D000710571F0433051056105710559F04130E3
:1007E00051056105710511F065E0099466E0FDCFE2
:1007F0006AE0FBCF69E0F9CFCF93DF93EC01CB0147
:10080000BA0123E030E040E050E00E94C3136130C1
:1008100071058105910599F0623071058105910599
:10082000A9F0672B682B692BC1F4E881F981028458
:10083000F385E02D64E0CE01DF91CF910994E8814A
:10084000F9810284F385E02D61E0F5CFE881F9813B
:100850000284F385E02D62E0EECFDF91CF91089521
:10086000DC01ED91FC910284F385E02D4370552766
:1008700066277727423051056105710571F04330D5
:1008800051056105710559F041305105610571054A
:1008900011F062E0099463E0FDCF61E0FBCF60E01E
:1008A000F9CFCF93DF93EC01E881F9810284F385DE
:1008B000E02D8A8160E0811162E0CE010995E88136
:1008C000F9810284F385E02D8A8161E0811163E082
:1008D000CE0109958CA59DA58230910538F0880F31
:1008E000991F880F991F05970197F1F7E881F98102
:1008F0000284F385E02D8A8160E0811162E0CE01FF
:10090000DF91CF910994CF93DF93EC0120E030E0A9
:10091000A901688D798D8A8D9B8D0E9463131816AD
:100920002CF4E8A9F9A9DF91CF910994EAA9FBA9D0
:10093000FACFCF92DF92EF92FF920F931F93CF9354
:10094000DF93DC011796CC91C43039F0C83059F1EF
:10095000C33019F0C63049F1C2E08C01085F1F4F67
:10096000F12CE12CC62ED12CD1E0F8016481C60116
:100970000E2C02C0959587950A94E2F780FD6D27AD
:100980000F5F1F4F80810E949501BFEFEB1AFB0A9A
:10099000EC1658F3DF91CF911F910F91FF90EF90DC
:1009A000DF90CF900895C4E0D8CFC3E0D6CFDC016C
:1009B0001796EC911797E93008F038C0F0E0ED5148
:1009C000FB4F0C94E213EC04F204F804FE0404055B
:1009D00016050A0516051005ED91FC910684F785AC
:1009E000E02D0994ED91FC910088F189E02DF9CF7B
:1009F000ED91FC910288F389E02DF3CFED91FC910C
:100A00000488F589E02DEDCFED91FC910688F789FA
:100A1000E02DE7CFED91FC91008CF18DE02DE1CF41
:100A2000ED91FC91028CF38DE02DDBCF08954F9278
:100A30005F926F927F928F929F92AF92BF92CF926E
:100A4000DF92EF92FF920F931F93CF93DF93EC010E
:100A5000CC88DD88EE88FF8888899989AA89BB8936
:100A6000C81AD90AEA0AFB0A688D798D8A8D9B8D8E
:100A70009B01AC010E940D114B015C0168A179A1A1
:100A80008AA19BA19B01AC010E944F129B01AC016A
:100A9000C501B4010E94BB120E942D13C114D104E0
:100AA000E104F10409F0B6C06230710581059105D9
:100AB0000CF0D0C01B821C821D821E82188E198EE3
:100AC0001A8E1B8E1CAA1DAA1EAA1FAAC12CD12CCD
:100AD0007601C701B601DF91CF911F910F91FF9071
:100AE000EF90DF90CF90BF90AF909F908F907F90CE
:100AF0006F905F904F90089510161106120613061E
:100B0000B4F46C157D058E059F051CF42A81211116
:100B1000A1C09B01AC0188279927DC01821B930BA4
:100B2000A40BB50B8CAB9DABAEABBFAB93C00115AB
:100B300011052105310509F48DC06C157D058E0563
:100B40009F050CF087C08A81882309F483C0309503
:100B50002095109501951F4F2F4F3F4F0CAB1DABAC
:100B60002EAB3FAB77C0011511052105310509F406
:100B700071C08824992454018C189D08AE08BF08C0
:100B8000681579058A059B050CF064C08A8181117E
:100B900061C0DDCFCCACDDACEEACFFACA701960103
:100BA000C701B6010E944F122B013C01C501B401DF
:100BB0000E94AE1020E030E040E850E40E940D11A9
:100BC00020E030E040E85FE30E944F129B01AC015F
:100BD000C301B2010E94BB129B01AC01C701B60167
:100BE0000E944E123B016C01FE01E05CFF4FE08071
:100BF000F180028113819701A8010E9463131816E6
:100C000014F473018601C701D8018CAF9DAFAEAF5C
:100C1000BFAF3AC00CA91DA92EA93FA91C141D04E1
:100C20001E041F040CF468CF1016110612061306DA
:100C30000CF099CF0027112798010C191D092E09D6
:100C40003F0960177107820793070CF062CF2A8172
:100C500021115FCF8CA89DA8AEA8BFA881149104D4
:100C6000A104B10409F096CF88AD99ADAAADBBAD92
:100C70008CAF9DAFAEAFBFAF81E01C141D041E044E
:100C80001F040CF080E08A833FEF831A930AA30AC3
:100C9000B30A8CAA9DAAAEAABFAA8CAC9DACAEAC7E
:100CA000BFACC501B4010E9434136B017C01CB823F
:100CB000DC82ED82FE82A501940160E074E284E7AB
:100CC00099E40E94BB12688F798F8A8F9B8F2A814B
:100CD0002111FFCE9058688F798F8A8F9B8FF9CE24
:100CE000CF92DF92EF92FF92CF93DF93EC018B8153
:100CF0009C81AD81BE81892B8A2B8B2B99F10E941F
:100D000012026B017C0188A599A5AAA5BBA5B70114
:100D1000A601481B590B6A0B7B0B8B819C81AD8113
:100D2000BE81481759076A077B07E0F088899989CF
:100D3000AA89BB892A812223B1F10196A11DB11D87
:100D4000888B998BAA8BBB8B488959896A897B8947
:100D5000CE010E94D704C8A6D9A6EAA6FBA6CE015A
:100D60000E94170520E030E0A901688D798D8A8DF9
:100D70009B8D0E94A71081111AC081E0CC88DD886C
:100D8000EE88FF88488959896A897B89C416D50607
:100D9000E606F70609F480E0DF91CF91FF90EF902F
:100DA000DF90CF9008950197A109B109C9CF81E0E3
:100DB000F3CFCF92DF92EF92FF920F931F93CF93D7
:100DC000DF93EC016A017B0120E030E0A901CB0157
:100DD000B6010E94A71087FF04C0F7FAF094F7F855
:100DE000F094A70196016C8D7D8D8E8D9F8D0E9454
:100DF000A710882309F446C0CC8EDD8EEE8EFF8EC0
:100E00008E01005C1F4FA701960160E074E284E749
:100E100099E40E94BB12F8016083718382839383FB
:100E20008CA99DA9AEA9BFA9181619061A061B06FA
:100E30004CF5688D798D8A8D9B8D9B01AC010E944C
:100E40000D116B017C0168A179A18AA19BA19B0175
:100E5000AC010E944F129B01AC01C701B6010E9478
:100E6000BB120E942D136CAB7DAB8EAB9FABCE0142
:100E7000DF91CF911F910F91FF90EF90DF90CF9076
:100E80000C941705DF91CF911F910F91FF90EF9078
:100E9000DF90CF9008950F931F93FC010089118973
:100EA00022893389400F511F621F731F04891589DE
:100EB00026893789401751076207730741F0448B31
:100EC000558B668B778B1F910F910C9417051F9193
:100ED0000F910895CF92DF92EF92FF92E0915C0321
:100EE000F0915D03EE0FFF1FEE0FFF1FEB5AFE4F59
:100EF000C080D180E280F380B701A6018CEC94E041
:100F00000E944B07B701A60188E894E0FF90EF909C
:100F1000DF90CF900C944B078F929F92AF92BF922D
:100F2000CF92DF92EF92FF92CF93DF93EC01888C08
:100F3000998CAA8CBB8C20E030E0A901C501B401DA
:100F40000E94A7108823D9F1A5019401C501B4011D
:100F50000E940D116B017C0168A179A18AA19BA15E
:100F60009B01AC010E944F129B01AC01C701B6016D
:100F70000E94BB120E942D136B017C0120E030E027
:100F8000A901C501B4010E946313B701A601181697
:100F90008CF44F5F5F4F6F4F7F4FCE01DF91CF914A
:100FA000FF90EF90DF90CF90BF90AF909F908F9089
:100FB0000C944B074095509560957095EECFDF915E
:100FC000CF91FF90EF90DF90CF90BF90AF909F9028
:100FD0008F9008950895CF92DF92EF92FF92FC01D7
:100FE000248935892F3F320729F0FC016689822F39
:100FF0000E9495010E9412026B017C010E94120264
:101000006C197D098E099F09623071058105910572
:10101000A8F3FF90EF90DF90CF900895CF93DF93E8
:10102000EC0161E088890E94E10161E088890E9409
:10103000950161E08A890E94E10160E08A890E944D
:1010400095018C899D898F3F980731F061E00E945E
:10105000E101CE010E947B0280E090E0A0E7B2E4D3
:101060008A8F9B8FAC8FBD8F61E070E0CE010E94B4
:10107000B502CE01DF91CF910C94EB07FC010190FA
:101080000020E9F73197AF01481B590BBC0181E6FD
:1010900093E00C948800FC0180819181009711F00D
:1010A0000C94841408950C9484140F931F93CF937D
:1010B000DF93EC0188819981009759F02A813B8167
:1010C0002617370730F081E0DF91CF911F910F9104
:1010D00008958B016F5F7F4F0E940D15009759F0A7
:1010E000998388831B830A832C813D81232B59F7A5
:1010F000FC011082E8CF80E0E7CFEF92FF920F93E0
:101100001F93CF93DF93EC017B018A01BA010E9408
:10111000550828813981811114C02115310519F034
:10112000C9010E948414198218821D821C821B82AC
:101130001A82CE01DF91CF911F910F91FF90EF9016
:1011400008951D830C83B701C9010E94D315F1CF07
:1011500050E040E068E471E00C947D08CF93DF93A9
:10116000EC016115710571F0FB0101900020E9F7B8
:101170003197AF01461B570B0E947D08CE01DF91CE
:10118000CF91089588819981009711F00E9484146D
:10119000198218821D821C821B821A82EFCF4F9205
:1011A0005F926F927F928F929F92AF92BF92CF92F7
:1011B000DF92EF92FF92CF93DF93EC016A017B0104
:1011C00020E030E0A901CB01B6010E94A71087FF03
:1011D00004C0F7FAF094F7F8F09488A099A0AAA0B8
:1011E000BBA0A7019601C501B4010E94A7108823E6
:1011F00009F44DC06CA97DA98EA99FA90E94AE10CB
:101200002B013C01A7019601C501B4010E94BB124C
:101210009B01AC01C301B2010E940D110E942D136C
:101220006CAB7DAB8EAB9FABA701960160E070E02D
:1012300080E090E40E94BB120E946E1326E53EE01F
:101240004DE25FE30E940D1120E034E244E759E4EF
:101250000E940D1168AF79AF8AAF9BAFC8A2D9A227
:10126000EAA2FBA2E881F9810084F185E02DCE019C
:10127000DF91CF91FF90EF90DF90CF90BF90AF9034
:101280009F908F907F906F905F904F900994DF9127
:10129000CF91FF90EF90DF90CF90BF90AF909F9055
:1012A0008F907F906F905F904F9008951F920F9254
:1012B0000FB60F9211242F933F934F935F936F9329
:1012C0007F938F939F93AF93BF93EF93FF9381E6A9
:1012D00093E00E940601FF91EF91BF91AF919F9122
:1012E0008F917F916F915F914F913F912F910F90CF
:1012F0000FBE0F901F9018951F920F920FB60F926E
:1013000011242F938F939F93EF93FF93E091710399
:10131000F09172038081E0917703F091780382FD70
:101320001BC0908180917A038F5F8F7320917B0324
:10133000821741F0E0917A03F0E0EF59FC4F958F6E
:1013400080937A03FF91EF919F918F912F910F904E
:101350000FBE0F901F9018958081F4CF1F920F92AF
:101360000FB60F9211242F933F938F939F93AF93B8
:10137000BF9380914D0190914E01A0914F01B0918A
:10138000500130914C0123E0230F2D3758F5019681
:10139000A11DB11D20934C0180934D0190934E01EE
:1013A000A0934F01B093500180915101909152014F
:1013B000A0915301B09154010196A11DB11D8093DC
:1013C000510190935201A0935301B0935401BF91E6
:1013D000AF919F918F913F912F910F900FBE0F90E2
:1013E0001F90189526E8230F0296A11DB11DD2CF9C
:1013F0008F929F92AF92BF92CF92DF92EF92FF9225
:101400000F931F93CF93DF93E1E6F3E013821282F1
:1014100088EE93E0A0E0B0E084839583A683B78351
:101420008AE091E09183808385EC90E095878487C2
:1014300084EC90E09787868780EC90E0918B808B9E
:1014400081EC90E0938B828B82EC90E0958B848B87
:1014500086EC90E0978B868B118E128E138E148EF5
:10146000ECECF4E008E211E011830083882483941B
:101470008782108A118A128A138A148A158A168A18
:10148000178A108E118E128E138E148E158E168E54
:10149000178E10A211A212A213A2C12CD12C80E887
:1014A000E82E8FE3F82EC4A2D5A2E6A2F7A21382FB
:1014B000148215821682C1E0D0E0D5A7C4A7992472
:1014C0009A9497A610A611A612A613A68CE0808760
:1014D0008DE0818794E0A92EA28625E0B22EB38606
:1014E00016A614AA15AA16AA17AA10AE11AE12AE05
:1014F00013AE14AE15AE16AE17AEC0920C05D09258
:101500000D05E0920E05F0920F05128214861586E5
:1015100016861786CF010E940403B701A6018CEC42
:1015200094E00E94CF08B701A6018CEC94E00E94E1
:10153000D906E8E8F4E0118300838782108A118AD3
:10154000128A138A148A158A168A178A108E118EA7
:10155000128E138E148E158E168E178E10A211A257
:1015600012A213A2C4A2D5A2E6A2F7A213821482E9
:1015700015821682D5A7C4A797A610A611A612A6F3
:1015800013A686E0808787E08187A286B38616A6A9
:1015900014AA15AA16AA17AA10AE11AE12AE13AE4F
:1015A00014AE15AE16AE17AEC092C804D092C904E0
:1015B000E092CA04F092CB04128214861586168635
:1015C0001786CF010E940403B701A60188E894E0C2
:1015D0000E94CF08B701A60188E894E00E94D906CE
:1015E000E6E4F4E0168217821086118612861386CE
:1015F0001486158648EC50E0578746878DE090E0CA
:10160000918B808B8CE090E0938B828B8BE090E0D1
:10161000958B848BD78BC68BD18FC08F128E138EF8
:10162000148E158E178E168E88EE93E091A380A3EC
:1016300093A382A314A615A616A617A610A611A6F4
:1016400012A613A615AE14AE10AA11AA12AA13AAB6
:1016500014AA15AA16AA17AA10AE11AE12AE13AE8E
:10166000128213821482158214A215A216A217A246
:101670002CE131E03183208368E070E077AF66AF22
:1016800069E070E07093870460938604E4E0F4E01E
:101690001682178210861186128613861486158686
:1016A0005787468747E050E0518B408B46E050E03B
:1016B000538B428B45E050E0558B448BD78BC68BC8
:1016C000D18FC08F128E138E148E158E178E168E9C
:1016D00091A380A393A382A314A615A616A617A66A
:1016E00010A611A612A613A615AE14AE10AA11AA22
:1016F00012AA13AA14AA15AA16AA17AA10AE11AEF6
:1017000012AE13AE128213821482158214A215A295
:1017100016A217A23183208382E090E097AF86AFB4
:1017200083E090E09093450480934404EEEFF3E06F
:10173000118210821382128215821482CF01DF91EE
:10174000CF911F910F91FF90EF90DF90CF90BF90BE
:10175000AF909F908F900C94A808CF93DF93CDB754
:10176000DEB7A7970FB6F894DEBF0FBECDBF789453
:1017700084B5826084BD84B5816084BD85B5826096
:1017800085BD85B5816085BD80916E008160809347
:101790006E001092810080918100826080938100B0
:1017A00080918100816080938100809180008160C0
:1017B000809380008091B10084608093B10080911B
:1017C000B00081608093B00080917A008460809343
:1017D0007A0080917A00826080937A0080917A000A
:1017E000816080937A0080917A00806880937A008B
:1017F0001092C100E0917103F091720382E0808346
:10180000E0916D03F0916E031082E0916F03F0910F
:1018100070038FEC808310927903E0917503F0914F
:10182000760386E08083E0917303F09174038081F6
:1018300080618083E0917303F091740380818860FC
:101840008083E0917303F0917403808180688083CA
:10185000E0917303F091740380818F7D808386E42F
:1018600094E00E940E0886E494E00E94EB0761E099
:1018700070E086E494E00E94B50261E08BE00E9493
:10188000E10161E088E00E94E10161E089E00E94FD
:10189000E10161E08BE00E94950160E088E00E9438
:1018A000950160E089E00E94950184E094E00E9447
:1018B0000E0884E094E00E94EB0761E070E084E0B1
:1018C00094E00E94B50261E085E00E94E10161E0E0
:1018D00082E00E94E10161E083E00E94E10161E0B9
:1018E00085E00E94950160E082E00E94950160E041
:1018F00083E00E94950140E050E563E478E48CECDD
:1019000094E00E94D90640E050E563E478E488E87A
:1019100094E00E94D906EAE02E2E312C412C512C65
:10192000BB24B39466246394712C81E693E00E94F7
:10193000E600181619060CF0C5C181E693E00E9476
:10194000C400A82E74E5C72E8C1105C084E491E074
:101950000E943E08EACF60E5D62E8D110BC0B092F2
:10196000600350E040E068E471E08EEF93E00E9495
:101970007D08DBCF80916003882309F410C156E510
:10198000E52EAE10E8C0109260031BA21AA21DA2A1
:101990001CA21FA21EA26091FE037091FF0361159D
:1019A000710541F04091020450910304CE018296EA
:1019B0000E947D0810925603109255031A821982D4
:1019C0001C821B821E821D82CE0101960E94A808E5
:1019D0000EA11FA101151105B9F00330110510F07A
:1019E00003E010E0EAA1FBA1E00FF11FF0801082FC
:1019F0006AA17BA1CE0101960E94AE088AA19BA19B
:101A0000080F191FF801F08240E150E070E060E03B
:101A100089819A810E94480F6B017C01CE01019659
:101A20000E944B08A4E6B0E0A70196010E94FD11B8
:101A30000E94AE106B017C0120E030E0A9010E9401
:101A4000A710882361F0B701A6018CEC94E00E94F6
:101A5000CF08B701A60188E894E00E94CF0803E010
:101A600010E08EA19FA10817190708F06FC08AA186
:101A70009BA1A12C009721F0800F911FFC01A08059
:101A80000C5F1F4F48016801F3E0CF1AD1080C1515
:101A90001D0528F49C2D8D2D6801892E982E1A8203
:101AA00019821C821B821E821D82CE0101960E9419
:101AB000A808EEA0FFA0CE14DF04C0F48E149F048B
:101AC00008F47401EAA1FBA1EE0DFF1D90801082C5
:101AD0006AA17BA16C0D7D1DCE0101960E94AE080E
:101AE0008AA19BA1E80EF91EF701908240E150E027
:101AF00070E060E089819A810E94480F6B017C014F
:101B0000CE0101960E944B08F0E3AF1208C0F0949A
:101B1000E094D094C094C11CD11CE11CF11C8091B4
:101B20005503909156039C012F5F3F4F309356030E
:101B300020935503880F991F880F991FFC01EB5ABA
:101B4000FE4FC082D182E282F3828BCFCE01829699
:101B50000E944B08EACEA9821A82009102041091D9
:101B600003040F5F1F4FB8018EEF93E00E945508EA
:101B7000882309F4DACE2091FE033091FF0380918F
:101B8000020490910304BE016F5F7F4F820F931F89
:101B90000E94D3151093030400930204C6CE37E4C9
:101BA000C32EAC1019C0B0925F03B0925E031092C6
:101BB0005D0310925C030E946A0770925D0360925D
:101BC0005C030E943702609358037093590380931B
:101BD0005A0390935B03A9CE2FE4D22EAD1003C01D
:101BE00010925F03E2CF95E5E92EAE1421F084E474
:101BF000F82EAF1053C01A8219821C821B821E82DB
:101C00001D82CE0101960E94A8080E94430297FD02
:101C10001EC08A309105D9F08AA31BA20D811E81B6
:101C20000F5F1F4FB801CE0101960E94550888230F
:101C300061F329813A818D819E81BE016E5D7F4F66
:101C4000820F931F0E94D3151E830D83DECF8981DF
:101C50009A81C12CD12C7601009721F00E945F104F
:101C60006B017C0185E5A81208C0F094E094D09443
:101C7000C094C11CD11CE11CF11CB0925703B701E8
:101C8000A6018CEC94E00E944B07B701A60188E8FE
:101C900094E00E944B07CE0101965ACFE8E5AE12C0
:101CA00044CE8CEC94E00E948C0788E894E00E947B
:101CB0008C0710925E031092600310925D031092E5
:101CC0005C0333CE80915E03882309F446C04091C3
:101CD000E0045091E1046091E2047091E30480918A
:101CE000DC049091DD04A091DE04B091DF0448177C
:101CF00059076A077B0749F540919C0450919D0460
:101D000060919E0470919F04809198049091990431
:101D1000A0919A04B0919B04481759076A077B0762
:101D2000A1F400915C0310915D03809155039091A3
:101D30005603081719070CF055C00E946A070F5F79
:101D40001F4F10935D0300935C038CEC94E00E94A2
:101D5000700688E894E00E947006809157038823FB
:101D6000A1F14091E0045091E1046091E20470918E
:101D7000E3048091DC049091DD04A091DE04B09135
:101D8000DF04481759076A077B07B9F440919C04A0
:101D900050919D0460919E0470919F0480919804DD
:101DA00090919904A0919A04B0919B044817590707
:101DB0006A077B0711F4109257038CEC94E00E94A1
:101DC000700688E894E00E94700680E090E0892B1D
:101DD00009F4ABCD0E94F200882309F4A6CD0E943D
:101DE0000000A3CD0E9437020091580310915903BF
:101DF00020915A0330915B036B017C01C01AD10A18
:101E0000E20AF30AA701960119A28E010F5D1F4F86
:101E1000CA01B901A20191010E94DB11605DF801C4
:101E200062938F01211531054105510589F73097DE
:101E300019F0CF010E943E0886E491E00E943E081E
:101E400089E491E00E943E0886E491E00E943E0809
:101E500080915F0310925D0310925C03882389F0E8
:101E60000E943702609358037093590380935A037A
:101E700090935B030E946A0770925D0360925C031B
:101E800064CF10925E0361CF8EEF93E00C944B0809
:101E9000B0E0A0E0EEE4FFE00C9409125C016B01FD
:101EA0007A016115710519F0FB0191838083E114BA
:101EB000F10451F0C7010297839730F040E030E021
:101EC00020E090E072C05E01E5012196F5011081ED
:101ED000812F90E00E948610892BA9F71D3201F511
:101EE0002196F501118101E0E114F10409F4DAC051
:101EF000F0E1EF16F10409F082C0103359F4888143
:101F00008F7D883509F076C0198122960260F0E154
:101F1000EF2EF12C812C912CA12C88E0B82E8CC0B6
:101F20001B3221F4E5012296F501118100E0DCCF9E
:101F3000EAE0EE16F10409F4BBC0F0E1EF16F1049B
:101F400009F06DC0E7CF78E0E72EF12C812C912CC1
:101F5000A12C60E1B62E70C03FE9310F3A3128F470
:101F600039EA332E80C021E09AC0302F3170C1147D
:101F7000D10431F0222309F12197F601D183C083E6
:101F800027FF21C060E070E080E090E8311104C0DC
:101F90006FEF7FEF8FEF9FE722E230E03093110584
:101FA00020931005462F372F282F642F732F822F51
:101FB000CDB7DEB7E1E10C94251201FF04C02297F2
:101FC000F601D183C083332341F0909580957095BD
:101FD00061957F4F8F4F9F4FE5CF97FFE3CF82E211
:101FE00090E090931105809310056FEF7FEF8FEFD6
:101FF0009FE7D8CF10E3E114F10409F4A4CF28E05F
:10200000E216F10409F4A2CF0CF092CF812C912CAE
:10201000A12CE0E4BE2E82E0E816F10469F060E055
:1020200070E080E090E897010F2C000C440B550BFA
:102030000E94DB1149015A0120E060E070E0CB0111
:1020400027010F2C000C66087708FE0150ED352E95
:10205000310E39E0331540F43FEB310F3A3108F0DF
:102060007BCF49EC342E310E3E141F040CF07DCF93
:1020700027FD15C086169706A806B90678F0A301B5
:1020800092010E94CB11630D711D811D911D613064
:102090007105810520E8920708F465CF2FEF21969E
:1020A0001081D3CF103309F42ACF2AE0E22EF12C8D
:1020B0009CEC892E982CA82C9CE0B92EBDCF1F93A8
:1020C000FC0199278827BC01E89411911032E9F3AB
:1020D000193010F01E30C8F31B3251F01D3249F494
:1020E000689406C00E948F10610F711D811D911DA3
:1020F000119110531A30B0F33EF49095809570957D
:1021000061957F4F8F4F9F4F1F91089591110C94B0
:10211000A410803219F089508550C8F70895592FBE
:10212000482F372F262F660F771F881F991F660F9E
:10213000771F881F991F620F731F841F951F660FDB
:10214000771F881F991F08959927882708950E944F
:10215000E91008F481E00895E89409C097FB3EF483
:1021600090958095709561957F4F8F4F9F4F9923E4
:10217000A9F0F92F96E9BB279395F6958795779562
:102180006795B795F111F8CFFAF4BB0F11F460FF22
:102190001BC06F5F7F4F8F4F9F4F16C0882311F07A
:1021A00096E911C0772321F09EE8872F762F05C08E
:1021B000662371F096E8862F70E060E02AF09A9529
:1021C000660F771F881FDAF7880F9695879597F91E
:1021D0000895990F0008550FAA0BE0E8FEEF1616B8
:1021E0001706E807F907C0F012161306E407F5070B
:1021F00098F0621B730B840B950B39F40A2661F07F
:10220000232B242B252B21F408950A2609F4A14021
:10221000A6958FEF811D811D08950E9420110C94B9
:1022200091110E94831138F00E948A1120F09523A9
:1022300011F00C947A110C94801111240C94C51196
:102240000E94A21170F3959FC1F3950F50E0551FA6
:10225000629FF001729FBB27F00DB11D639FAA27FB
:10226000F00DB11DAA1F649F6627B00DA11D661F4A
:10227000829F2227B00DA11D621F739FB00DA11D6B
:10228000621F839FA00D611D221F749F3327A00D25
:10229000611D231F849F600D211D822F762F6A2FC1
:1022A00011249F5750409AF0F1F088234AF0EE0F26
:1022B000FF1FBB1F661F771F881F91505040A9F753
:1022C0009E3F510580F00C947A110C94C5115F3F2C
:1022D000E4F3983ED4F3869577956795B795F7958F
:1022E000E7959F5FC1F7FE2B880F911D9695879507
:1022F00097F9089597F99F6780E870E060E0089586
:102300009FEF80EC089500240A941616170618060D
:102310000906089500240A941216130614060506E9
:102320000895092E0394000C11F4882352F0BB0F7A
:1023300040F4BF2B11F460FF04C06F5F7F4F8F4FDD
:102340009F4F089557FD9058440F551F59F05F3F18
:1023500071F04795880F97FB991F61F09F3F79F0C7
:1023600087950895121613061406551FF2CF469549
:10237000F1DF08C0161617061806991FF1CF8695CB
:102380007105610508940895E894BB2766277727AF
:10239000CB0197F90895DB018F939F930E94FD1164
:1023A000BF91AF91A29F800D911DA39F900DB29FF1
:1023B000900D11240895A1E21A2EAA1BBB1BFD014A
:1023C0000DC0AA1FBB1FEE1FFF1FA217B307E40714
:1023D000F50720F0A21BB30BE40BF50B661F771F6C
:1023E000881F991F1A9469F760957095809590954C
:1023F0009B01AC01BD01CF0108950E943F12A59F32
:10240000900DB49F900DA49F800D911D11240895EF
:102410002F923F924F925F926F927F928F929F92F4
:10242000AF92BF92CF92DF92EF92FF920F931F93E2
:10243000CF93DF93CDB7DEB7CA1BDB0B0FB6F89493
:10244000DEBF0FBECDBF09942A88398848885F84D3
:102450006E847D848C849B84AA84B984C884DF8044
:10246000EE80FD800C811B81AA81B981CE0FD11D28
:102470000FB6F894DEBF0FBECDBFED010895A29F49
:10248000B001B39FC001A39F700D811D1124911D48
:10249000B29F700D811D1124911D08955058BB27C6
:1024A000AA270E9466120C9491110E94831138F0A1
:1024B0000E948A1120F039F49F3F19F426F40C94FD
:1024C00080110EF4E095E7FB0C947A11E92F0E943D
:1024D000A21158F3BA17620773078407950720F013
:1024E00079F4A6F50C94C4110EF4E0950B2EBA2FD6
:1024F000A02D0B01B90190010C01CA01A00111240A
:10250000FF27591B99F0593F50F4503E68F11A16B5
:10251000F040A22F232F342F4427585FF3CF469546
:1025200037952795A795F0405395C9F77EF41F1668
:10253000BA0B620B730B840BBAF09150A1F0FF0F32
:10254000BB1F661F771F881FC2F70EC0BA0F621F1E
:10255000731F841F48F4879577956795B795F7950E
:102560009E3F08F0B0CF9395880F08F09927EE0FA3
:102570009795879508950E94CF120C9491110E940F
:102580008A1158F00E94831140F029F45F3F29F02E
:102590000C947A1151110C94C5110C9480110E9465
:1025A000A21168F39923B1F3552391F3951B550BB1
:1025B000BB27AA2762177307840738F09F5F5F4F16
:1025C000220F331F441FAA1FA9F335D00E2E3AF055
:1025D000E0E832D091505040E695001CCAF72BD06D
:1025E000FE2F29D0660F771F881FBB1F26173707BE
:1025F0004807AB07B0E809F0BB0B802DBF01FF27F0
:1026000093585F4F3AF09E3F510578F00C947A1141
:102610000C94C5115F3FE4F3983ED4F3869577950B
:102620006795B795F7959F5FC9F7880F911D9695A8
:10263000879597F90895E1E0660F771F881FBB1F04
:10264000621773078407BA0720F0621B730B840BB1
:10265000BA0BEE1F88F7E09508950E943413689432
:10266000B1110C94C51108950E94AA1188F09F57CA
:1026700098F0B92F9927B751B0F0E1F0660F771FA6
:10268000881F991F1AF0BA95C9F714C0B13091F09C
:102690000E94C411B1E008950C94C411672F782FE3
:1026A0008827B85F39F0B93FCCF386957795679561
:1026B000B395D9F73EF490958095709561957F4FCD
:1026C0008F4F9F4F08950E94E91008F48FEF0895EF
:1026D00019F416F40C9480110C94AE130E94AA11F4
:1026E000B8F39923C9F3B6F39F57550B87FF0E94A0
:1026F000BC130024A0E640EA9001805856959795B7
:1027000028F4805C660F771F881F20F02617370794
:10271000480730F4621B730B840B202931294A2BA4
:10272000A69517940794202531254A2758F7660F58
:10273000771F881F20F026173707480730F4620BF1
:10274000730B840B200D311D411DA09581F7B9013C
:10275000842F9158880F9695879508959F3F31F063
:10276000915020F4879577956795B795880F911DBF
:102770009695879597F9089591505040660F771F69
:10278000881FD2F70895052E97FB1EF400940E942F
:10279000DA1357FD07D00E94DB1107FC03D04EF47B
:1027A0000C94DA1350954095309521953F4F4F4F3B
:1027B0005F4F089590958095709561957F4F8F4FED
:1027C0009F4F0895EE0FFF1F0590F491E02D09949F
:1027D0000F931F93CF93DF938230910510F482E023
:1027E00090E0E0911405F091150530E020E0B0E0B4
:1027F000A0E0309799F42115310509F44AC0281B4F
:10280000390B24303105D8F58A819B81611571051A
:1028100089F1FB0193838283FE0111C040815181C4
:102820000281138148175907E0F04817590799F4B6
:10283000109761F012960C93129713961C93329690
:10284000CF01DF91CF911F910F910895009314054F
:1028500010931505F4CF2115310551F04217530798
:1028600038F0A901DB019A01BD01DF01F801C1CFF8
:10287000EF01F9CF9093150580931405CDCFFE019C
:10288000E20FF31F819391932250310939832883FA
:10289000D7CF2091120530911305232B41F42091BD
:1028A000020130910301309313052093120520910A
:1028B0000001309101012115310541F42DB73EB7DA
:1028C0004091040150910501241B350BE091120544
:1028D000F0911305E217F307A0F42E1B3F0B281706
:1028E000390778F0AC014E5F5F4F2417350748F089
:1028F0004E0F5F1F509313054093120581939193E0
:102900009FCFF0E0E0E09CCFCF93DF930097E9F01A
:10291000FC01329713821282A0911405B091150523
:10292000ED0130E020E01097A1F420813181820F89
:10293000931F20911205309113052817390709F0CC
:1029400061C0F0931305E0931205DF91CF910895D4
:10295000EA01CE17DF07E8F54A815B819E01411548
:102960005105B1F7E901FB83EA8349915991C40FFD
:10297000D51FEC17FD0761F4808191810296840FC9
:10298000951FE90199838883828193819B838A8340
:10299000F0E0E0E012968D919C9113970097B9F5C5
:1029A0002D913C911197CD010296820F931F20919A
:1029B0001205309113052817390739F6309751F56C
:1029C0001092150510921405B0931305A0931205EB
:1029D000BCCFD383C28340815181840F951FC81718
:1029E000D90761F44E5F5F4F88819981480F591F65
:1029F000518340838A819B81938382832115310592
:102A000009F0B0CFF0931505E09314059ECFFD01BA
:102A1000DC01C0CF13821282D7CFB0E0A0E0E3E1A7
:102A2000F5E10C940A128C01009751F4CB010E943D
:102A3000E8138C01C801CDB7DEB7E0E10C94261293
:102A4000FC01E60FF71F9C0122503109E217F30742
:102A500008F49DC0D901CD91DC911197C617D70715
:102A600098F0C530D10530F3CE010497861797074B
:102A700008F3C61BD70B2297C193D1936D937C9318
:102A8000CF010E948414D6CF5B01AC1ABD0A4C0161
:102A90008C0E9D1EA0911405B0911505512C412C52
:102AA000F12CE12C109731F58091120590911305CE
:102AB0008815990509F05CC04616570608F058C0FD
:102AC0008091000190910101009741F48DB79EB76C
:102AD0004091040150910501841B950BE817F907FB
:102AE00008F055C0F0931305E0931205F9017183C6
:102AF0006083A0CF8D919C91119712966C90129744
:102B000013967C901397A815B90559F56C0142E00E
:102B1000C40ED11CCA14DB0420F1AC014A195B09B4
:102B2000DA011296159780F0628273825183408396
:102B3000D9016D937C93E114F10471F0D7011396E0
:102B4000FC93EE93129776CF22968C0F9D1FF9017E
:102B500091838083F301EFCFF0931505E093140583
:102B600069CF4816590608F42C017D01D3019ACF8C
:102B7000CB010E94E8137C01009749F0AE01B80137
:102B80000E94CA15C8010E948414870153CF10E027
:102B900000E050CFFB01DC0102C001900D924150DA
:102BA0005040D8F70895FB01DC0101900D92002000
:102BB000E1F7089510E0CDE5D0E004C0FE010E94E9
:0E2BC000E2132196CE35D107C9F7F894FFCF66
:102BCE000000160580000000000028018800B500F6
:102BDE007501E600C400D800000000007502B502C1
:102BEE00EB077B020000000038030403EA075308DA
:102BFE0017059904D704830451043004FC03DB0346
:0C2C0E008503560343000D0A0059000026
:00000001FF
